:100000000C9461000C946B000C946B000C946B00CE
:100010000C946B000C946B000C946B000C946B00B4
:100020000C946B000C946B000C946B000C946B00A4
:100030000C946B000C946B000C946B000C946B0094
:100040000C946B000C946B000C946B000C946B0084
:100050000C946B000C946B000C946B000C946B0074
:100060000C946B000C946B0008000000BE922449B5
:10007000123EABAAAA2ABECDCCCC4C3E00000080DA
:10008000BEABAAAAAA3E00000000BF000000803F4D
:100090000000000000084178D3BB4387D1133D190D
:1000A0000E3CC3BD4282AD2B3E68EC8276BED98F3A
:1000B000E1A93E4C80EFFFBE01C4FF7F3F0000007E
:1000C000000011241FBECFEFD8E0DEBFCDBF0E94DD
:1000D0006D000C9411030C9400008FEF84B980E440
:1000E00080937C0080917A00876880937A0080E812
:1000F00085B980EFC82E88E1D82E8CE9E82EF12C46
:10010000C0E880917C00887F80937C0080917C0097
:1001100080937C0080917A00806480937A00809143
:100120007A0084FFFCCF80917A00806180937A000E
:100130002091780030917900032E000C440B550B70
:10014000C701B6010E94D002CA01B90160517742CD
:10015000810991090E942D010E94C60123E333E920
:1001600048E853E40E94BE0020E030E048EC51E44F
:100170000E94B90187FDC5CFC5B9C3CF5058BB2771
:10018000AA270E94D6000C947F010E94710138F0CA
:100190000E94780120F039F49F3F19F426F40C9462
:1001A0006E010EF4E095E7FB0C946801E92F0E94C4
:1001B000900158F3BA17620773078407950720F078
:1001C00079F4A6F50C94B2010EF4E0950B2EBA2F3B
:1001D000A02D0B01B90190010C01CA01A00111244D
:1001E000FF27591B99F0593F50F4503E68F11A16F9
:1001F000F040A22F232F342F4427585FF3CF46958A
:1002000037952795A795F0405395C9F77EF41F16AB
:10021000BA0B620B730B840BBAF09150A1F0FF0F75
:10022000BB1F661F771F881FC2F70EC0BA0F621F61
:10023000731F841F48F4879577956795B795F79551
:100240009E3F08F0B0CF9395880F08F09927EE0FE6
:10025000979587950895E89409C097FB3EF490958B
:100260008095709561957F4F8F4F9F4F9923A9F08F
:10027000F92F96E9BB279395F6958795779567951E
:10028000B795F111F8CFFAF4BB0F11F460FF1BC062
:100290006F5F7F4F8F4F9F4F16C0882311F096E9F5
:1002A00011C0772321F09EE8872F762F05C06623A3
:1002B00071F096E8862F70E060E02AF09A95660F5C
:1002C000771F881FDAF7880F9695879597F9089515
:1002D00097F99F6780E870E060E008959FEF80ECF9
:1002E000089500240A94161617061806090608959C
:1002F00000240A9412161306140605060895092E02
:100300000394000C11F4882352F0BB0F40F4BF2B70
:1003100011F460FF04C06F5F7F4F8F4F9F4F0895B0
:1003200057FD9058440F551F59F05F3F71F04795A6
:10033000880F97FB991F61F09F3F79F0879508958B
:10034000121613061406551FF2CF4695F1DF08C0AA
:10035000161617061806991FF1CF869571056105C7
:1003600008940895E894BB2766277727CB0197F96F
:1003700008950E94770208F48FEF089516F00C9408
:100380009B020C946E0168940C9468010E94980181
:10039000A8F39923C1F3AEF3DF93CF931F930F9389
:1003A000FF92C92FDD2788232AF02197660F771F38
:1003B000881FDAF720E030E040E85FEB9FE3883900
:1003C00020F0803E38F021968F770E94BF00E8E64B
:1003D000F0E004C00E94BF00E5E9F0E00E94A9023D
:1003E0008B01BE01EC01FB2E6F5771097595771FCC
:1003F000880B990B0E942D0128E132E741E35FE36E
:100400000E941D02AF2D9801AE01FF900F911F9128
:10041000CF91DF910E94D6000C947F010E94710160
:1004200038F00E94780120F0952311F00C946801B7
:100430000C946E0111240C94B3010E94900170F38E
:10044000959FC1F3950F50E0551F629FF001729F79
:10045000BB27F00DB11D639FAA27F00DB11DAA1F88
:10046000649F6627B00DA11D661F829F2227B00DD5
:10047000A11D621F739FB00DA11D621F839FA00D60
:10048000611D221F749F3327A00D611D231F849FB0
:10049000600D211D822F762F6A2F11249F57504007
:1004A0009AF0F1F088234AF0EE0FFF1FBB1F661F82
:1004B000771F881F91505040A9F79E3F510580F04B
:1004C0000C9468010C94B3015F3FE4F3983ED4F3BD
:1004D000869577956795B795F795E7959F5FC1F7EF
:1004E000FE2B880F911D9695879597F90895990F82
:1004F0000008550FAA0BE0E8FEEF16161706E807EE
:10050000F907C0F012161306E407F50798F0621B0E
:10051000730B840B950B39F40A2661F0232B242BE3
:10052000252B21F408950A2609F4A140A6958FEF02
:10053000811D811D08959F3F31F0915020F48795D2
:1005400077956795B795880F911D9695879597F93B
:100550000895DF93CF931F930F93FF92EF92DF9253
:100560007B018C01689406C0DA2EEF010E941D0207
:10057000FE01E894A5912591359145915591A6F3F9
:10058000EF010E94D600FE019701A801DA9469F7F5
:10059000DF90EF90FF900F911F91CF91DF91089521
:1005A000052E97FB1EF400940E94E70257FD07D02A
:1005B0000E94EF0207FC03D04EF40C94E702509522
:1005C0004095309521953F4F4F4F5F4F089590953F
:1005D0008095709561957F4F8F4F9F4F0895A1E251
:1005E0001A2EAA1BBB1BFD010DC0AA1FBB1FEE1FAD
:1005F000FF1FA217B307E407F50720F0A21BB30BF8
:10060000E40BF50B661F771F881F991F1A9469F773
:1006100060957095809590959B01AC01BD01CF01CF
:060620000895F894FFCFDD
:00000001FF
